:100000000C943F000C9467000C9467000C946700FC
:100010000C9467000C9467000C9467000C946700C4
:100020000C9467000C9467000C9467000C946700B4
:100030000C9467000C9467000C9467000C946700A4
:100040000C9467000C9467000C9467000C94670094
:100050000C9467000C9467000C9467000C94670084
:100060000C9467000C9467000C9467000C94670074
:100070000C9467000C9467000C946700020811242C
:100080001FBECFEFD8E0DEBFCDBF11E0A0E0B1E0F2
:10009000E2E4F2E102C005900D92AC30B107D9F76D
:1000A00021E0ACE0B1E001C01D92A93BB207E1F74D
:1000B00010E0CFE3D0E004C02197FE010E945A086F
:1000C000CE33D107C9F70E94C3070C941F090C94C3
:1000D00000002898209AF8946150710908F424C00F
:1000E000FC010190008007D0029005D001900190A2
:1000F000019001D017C008D007D006D005D004D099
:1001000003D002D001D00895289A001C00000000FE
:1001100008F028980000000000000000000008F42B
:1001200028980895CF01D8CF78948FE391E0019774
:10013000F1F700C000000895EF92FF920F931F9314
:10014000CF93DF930E94AC087C010E94AC088C0125
:100150000E94AC08EC012FEF30E0C701B9010E940A
:100160003208E82FC801B9010E943208482FCE0199
:10017000B9010E9432086E2F742FDF91CF911F9129
:100180000F91FF90EF900895CF92DF92EF92E3E20C
:10019000F1E080E020E030E09BEA27303105B8F460
:1001A000C0902001D0902101E0902201C082D18234
:1001B000E282899F412D1124469550912001540FD0
:1001C0005093200150912201541B50932201A90108
:1001D0004750510947305105B8F4C0900301D09001
:1001E0000401E0900501C082D182E282899F412D05
:1001F0001124469550910301540F509303015091DF
:100200000501450F40930501A9014E5051094730A2
:100210005105B8F4C0900001D0900101E0900201B6
:10022000C082D182E282899F412D1124469550914E
:100230000001540F5093000150910201541B509340
:100240000201A901455151094730510590F4C09070
:100250001D01D0901E01E0901F01C082D182E28278
:10026000899F412D1124469550911E01450F4093C1
:100270001E01A9014C5151094730510570F4C0903D
:100280001A01D0901B01E0901C01C082D182E28251
:1002900040911B01480F40931B01A9014352510992
:1002A0004730510570F4C0901701D0901801E090CC
:1002B0001901C082D182E28240911701481B40930C
:1002C0001701A9014A5251094830510598F4C090CC
:1002D0001401D0901501E0901601C082D182E28213
:1002E00040911501481B4093150140911601480F9C
:1002F000409316018F5F83702F5F3F4F33962233F9
:10030000310509F04ACF61E370E083E291E0EF90BC
:10031000DF90CF900C946900E3E2F1E06193719378
:10032000819391E0E63BF907C9F761E370E083E26E
:1003300091E00C9469006F927F928F92AF92BF927E
:10034000CF92DF92EF92FF920F931F93CF93DF93A1
:100350001F92CDB7DEB7182F99830E949C000E9490
:100360008C01A12E9981B92E95E0C92ED12C1A1499
:100370001B047CF50E949C003B01882E83E2E82E42
:1003800081E0F82E00E010E0C801B6010E943208BA
:10039000892B21F4F70160827182828261E370E02F
:1003A00083E291E00E9469000F5F1F4FF3E0EF0EC0
:1003B000F11C0133110541F72FEF89E698E1215037
:1003C00080409040E1F700C00000E1E0AE1AB108C3
:1003D000CECF0F90DF91CF911F910F91FF90EF90B3
:1003E000DF90CF90BF90AF908F907F906F900895E7
:1003F0002F923F924F926F927F928F92AF92BF92C5
:10040000CF92DF92EF92FF920F931F93CF93DF93E0
:100410006C015B013901842E1701402E609111019E
:1004200070911201809113010E948C01E601CC0FA2
:10043000DD1FCC0DDD1DCD5DDE4F8601AC0CBD1C7E
:100440000A151B05DCF4013311051CF4688279825E
:100450008A8261E370E083E291E00E9469002FEFFD
:1004600081EE94E0215080409040E1F700C0000010
:100470002992399249920F5F1F4FE2CFDF91CF91BE
:100480001F910F91FF90EF90DF90CF90BF90AF90B2
:100490008F907F906F904F903F902F9008956F9224
:1004A0007F928F92AF92BF92CF92DF92EF920F9393
:1004B0001F93CF93DF935C01609111017091120142
:1004C000809113010E948C010E949C006B01E82E18
:1004D0000E949C003B01882E03E211E0C0E0D0E0C6
:1004E000F801C192D192E1928F012196CA15DB05E4
:1004F000C9F4C9EBD1E08A927A926A9261E370E022
:1005000083E291E00E946900FFEF20E782E0F15072
:1005100020408040E1F700C0000091E0C332D907DD
:1005200051F710C061E370E083E291E00E9469003E
:10053000EFEFF1EE24E0E150F0402040E1F700C0A1
:100540000000CECFDF91CF911F910F91EF90DF9000
:10055000CF90BF90AF908F907F906F900895AF92A3
:10056000BF92CF92DF92EF92FF920F931F93CF93A0
:10057000DF9300D01F92CDB7DEB76091110170916B
:100580001201809113010E948C010E949C006983DA
:100590007A838B8389EBC82E81E0D82E93E2A92E33
:1005A00091E0B92E21E3E22EF12C00E010E000FFF3
:1005B00006C0053111051CF4FE01319602C0EEE0C3
:1005C000F1E080819181A281F50181939193A193C2
:1005D0005F01E0FE07C0FCE1EF16F1041CF0FE0134
:1005E000319602C0EEE0F1E080819181A281F601B6
:1005F000A293929382936F0161E370E083E291E0B2
:100600000E946900FFEF21EE84E0F150204080401D
:10061000E1F700C000000F5F1F4F91E0E91AF108F9
:100620000831110524F229E1E216F1040CF0BFCFE4
:100630000F900F900F90DF91CF911F910F91FF902E
:10064000EF90DF90CF90BF90AF9008952F923F92A0
:100650004F926F927F928F92AF92BF92CF92DF9222
:10066000EF92FF920F93CF93DF9300D0CDB7DEB719
:100670009A8389838091B7019091B8018230910566
:1006800021F184F40097E1F0019709F08FC00E94F6
:10069000AC0865E070E00E9432080E949B0182E095
:1006A00090E074C08330910509F475C0049709F097
:1006B0007DC00E94AF021092B8011092B70178C0BD
:1006C0000E94C40081E090E061C00E949C001B0178
:1006D000482E0E949C003B01882E0E94AC086FE0CF
:1006E00070E00E9432086C01082D7301442D9101C5
:1006F000BC0180E090E00E94F8010E949C001B0178
:10070000482E0E94AC086AE070E00E9432088C0D0E
:100710009D1D64E170E00E9432086C010E94AC08EB
:100720006AE070E00E9432088C0D9D1D6EE170E061
:100730000E9432085C01442D9101BC01C6010E9457
:10074000F8010E949C001B01482E0E94AC086AE040
:1007500070E00E9432088A0D9B1D63E270E00E94E7
:1007600032086C010E94AC086AE070E00E94320816
:100770008C0D9D1D61E370E00E943208442D9101B3
:10078000BC01C6010E94F80183E090E09093B8019B
:100790008093B7010DC00E94AC0861E370E00E9435
:1007A00032080E944F0284E090E0F0CF0E94AF0236
:1007B0002FEF8BE792E9215080409040E1F700C095
:1007C0000000E981FA8111821082FFEF25EA8EE0B4
:1007D000F15020408040E1F700C000000F900F90E2
:1007E000DF91CF910F91FF90EF90DF90CF90BF906E
:1007F000AF908F907F906F904F903F902F90089583
:10080000882309F492C0813009F492C0823009F43F
:1008100092C0833009F492C0843009F492C08530CC
:1008200009F492C0863009F492C0873009F492C06E
:10083000883009F492C0893009F492C0803109F4FB
:1008400092C0813109F492C0823109F492C083319F
:1008500009F492C0843109F492C0853109F492C040
:10086000863109F492C0873109F492C0883109F4C5
:1008700092C0893109F492C0803209F492C0813269
:1008800009F492C0823209F492C0833209F492C012
:10089000843209F492C0853209F492C0863209F498
:1008A00092C0873209F492C0883209F492C089322A
:1008B00009F492C0803309F492C0813309F492C0E4
:1008C000823309F492C0833309F492C0843309F46B
:1008D00092C0853309F492C0863309F492C08733FD
:1008E00009F492C0883309F492C0893309F492C0A4
:1008F000803409F492C0813409F492C0823409F43E
:1009000092C0833409F492C0843409F492C08534CF
:1009100009F492C0863409F492C0873409F492C075
:10092000883409F492C008F093C080E090E0089504
:1009300081E090E0089582E090E0089583E090E007
:10094000089584E090E0089585E090E0089586E0C1
:1009500090E0089587E090E0089588E090E00895A1
:1009600089E090E008958AE090E008958BE090E0BF
:1009700008958CE090E008958DE090E008958EE079
:1009800090E008958FE090E0089580E190E0089570
:1009900081E190E0089582E190E0089583E190E0A4
:1009A000089584E190E0089585E190E0089586E15E
:1009B00090E0089587E190E0089588E190E008953F
:1009C00089E190E008958AE190E008958BE190E05C
:1009D00008958CE190E008958DE190E008958EE116
:1009E00090E008958FE190E0089580E290E008950E
:1009F00081E290E0089582E290E0089583E290E041
:100A0000089584E290E0089585E290E0089586E2FA
:100A100090E0089587E290E0089588E290E00895DC
:100A200089E290E008958AE290E008958BE290E0F8
:100A300008958CE290E008958DE290E008958EE2B2
:100A400090E008958FE290E0089580E390E00895AB
:100A500081E390E008950E940004AC018530910587
:100A600018F488E190E077C08530910509F47CC0E6
:100A70000697039718F489E190E06DC0CA010997C1
:100A80008230910508F473C00297049718F48AE144
:100A900090E061C0CA010E978230910508F46AC0E7
:100AA0000297049740F04431510509F466C0CA0129
:100AB0004597049718F42BE130E04CC0CA014897E1
:100AC0008230910508F45CC00297049718F42CE179
:100AD00030E040C0CA014D978230910508F453C000
:100AE0000297049718F42FE430E034C0CA018297CB
:100AF0008230910508F44AC00297049718F420E563
:100B000030E028C0CA0187978230910508F441C0BF
:100B10000297049738F04D325105F1F1CA018E97D2
:100B2000049718F421E530E015C0CA01C19782305E
:100B30009105A8F10297049718F422E530E00AC065
:100B4000CA01C6978230910568F10297049730F484
:100B500023E530E0C901841B950B08954B535109DF
:100B60004230510580F421C084E190E0089580E195
:100B700090E008958CE090E0089587E090E008957B
:100B800083E090E0089580E090E008958DE290E0A9
:100B9000089589E290E0089584E290E0089580E26B
:100BA00090E008958CE190E0089588E190E0089548
:100BB0000E9400048530910509F440C081319105FF
:100BC000E9F184309105E9F180319105D1F183306B
:100BD0009105D1F18F309105B9F182309105B9F1CC
:100BE0008E309105A1F181309105A1F18D309105F3
:100BF00089F18C30910589F1009779F18B3091055D
:100C000079F18731910561F18A30910561F1863181
:100C1000910549F18930910549F18531910531F10D
:100C20008830910531F18431910519F187309105B2
:100C300019F1439709F180E090E0089583E090E096
:100C4000089587E090E008958CE090E0089580E1B9
:100C500090E0089584E190E0089588E190E008959F
:100C60008CE190E0089580E290E0089584E290E0C5
:100C7000089589E290E008958DE290E008956F92E2
:100C80007F928F92CF92DF92EF92FF920F931F93FA
:100C9000CF93DF933B01882E842F122F0E940004F4
:100CA0006C0183E2E82E81E0F82EC0E0D0E0CC15A4
:100CB000DD0561F0812F0E942B05C817D90731F09F
:100CC000802F0E94D805C817D907C1F4219683E068
:100CD000E80EF11CC133D10551F761E370E083E206
:100CE00091E0DF91CF911F910F91FF90EF90DF90F6
:100CF000CF908F907F906F900C946900F701608285
:100D000071828282E3CF2F923F924F926F927F92B5
:100D10008F92AF92BF92CF92EF92FF920F931F9359
:100D2000CF93DF9300D000D000D0CDB7DEB73B012A
:100D3000882E1901442EEC82FD820E830E946307E7
:100D4000AE014D5F5F4FBE016E5F7F4FCE010196DA
:100D50000E94950709812A814B81882DB3010E9449
:100D60003F068B810E9400048233910514F080FFBE
:100D70006AC020922301309224014092250101E3B0
:100D800010E0B8010E943208FC01EE0FFF1F8E0F29
:100D90009F1FFC01ED5DFE4F2082318242828981DE
:100DA000863091F0823181F00E94D805B8010E940E
:100DB0003208FC01EE0FFF1F8E0F9F1FFC01ED5D3F
:100DC000FE4FA082B182C2828A810E942B059C01C3
:100DD000220F331F820F931FFC01ED5DFE4F8C81AC
:100DE0009D81AE8180839183A28361E370E083E281
:100DF00091E00E9469008B810E94000461E370E031
:100E00000E943208FC01EE0FFF1F8E0F9F1FFC0196
:100E1000ED5DFE4F60827182828226960FB6F89455
:100E2000DEBF0FBECDBFDF91CF911F910F91FF901D
:100E3000EF90CF90BF90AF908F907F906F904F903A
:100E40003F902F900895209111013091120140910F
:100E500013012093230130932401409325018FCF68
:100E60001092B90086E48093B80084E08093BC00BF
:100E7000089584EA8093BC008091BC0087FFFCCF7A
:100E8000089584E98093BC008FE891E00197F1F721
:100E900000C0000008958093BB0084E88093BC00EC
:100EA0008091BC0087FFFCCF089520E4829FC001A1
:100EB000112484688093BC008091BC0087FFFCCF24
:100EC0008091BB0008950E9430070E94390780ED91
:100ED0000E944B0787E00E944B0780E00E944B076F
:100EE0000C9441071F93CF93DF9300D0CDB7DEB7AB
:100EF000182F49836A830E94390780ED0E944B07AF
:100F000080E00E944B074981842F0E944B076A8131
:100F1000862F0E944B07812F0E944B070F900F9046
:100F2000DF91CF911F910C944107EF92FF920F93A5
:100F30001F93CF93DF93EC018B017A010E94390755
:100F400080ED0E944B0780E00E944B070E94410702
:100F50000E94390781ED0E944B0781E00E945507EE
:100F6000F701808381E00E945507F801808380E0CB
:100F70000E9455078883DF91CF911F910F91FF90B9
:100F8000EF900C94410722982A9A579A5F981A99E1
:100F900017C081E090E020910C0130910D01232BCE
:100FA00011F080E090E090930D0180930C012FEF01
:100FB0008BE49DE1215080409040E1F700C00000AB
:100FC00080910C0190910D01009739F00197F9F68D
:100FD0008CE091E00E942603DACF5F98AA24AA94BD
:100FE0008AE0B82E9AE0C92E22E0E22E37E5F32EF1
:100FF0000CE62FEF3FE740E06FEF7FE585E50E94CD
:101000008306C5CF8091B601E0E2F1E08083818361
:1010100090910601928380930401E0E0F1E08183E6
:101020009283EDE1F1E0908381838283EAE1F1E054
:1010300090832091070121838283E7E1F1E090838F
:1010400091838283E4E1F1E0808391838283E1E113
:10105000F1E0808381838283EEE0F1E090839183ED
:101060009283089597FB072E16F4009407D077FD1E
:1010700009D00E94460807FC05D03EF49095819562
:101080009F4F0895709561957F4F0895AA1BBB1BD4
:1010900051E107C0AA1FBB1FA617B70710F0A61B78
:1010A000B70B881F991F5A95A9F780959095BC0199
:1010B000CD010895EE0FFF1F0590F491E02D0994E6
:1010C0008F929F92AF92BF92CF92DF92EF92FF9258
:1010D000CF93DF93EC01688179818A819B816115CF
:1010E00071058105910521F464E279ED8BE597E0C6
:1010F0002DE133EF41E050E00E94BC0849015A0164
:101100009B01AC01A7EAB1E40E94DB086B017C0102
:10111000ACEEB4EFA50194010E94E908DC01CB011B
:101120008C0D9D1DAE1DBF1DB7FF03C00197A1090A
:10113000B04888839983AA83BB839F77DF91CF913F
:10114000FF90EF90DF90CF90BF90AF909F908F90E7
:1011500008950E946008089588E091E00E94600868
:101160000895A0E0B0E08093080190930901A09356
:101170000A01B0930B010895052E97FB1EF400940D
:101180000E94D30857FD07D00E94EE0807FC03D049
:101190004EF40C94D30850954095309521953F4FCF
:1011A0004F4F5F4F089590958095709561957F4F53
:1011B0008F4F9F4F08950E941009A59F900DB49FD7
:1011C000900DA49F800D911D11240895B7FF0C94DC
:1011D000DB080E94DB08821B930B0895A1E21A2E04
:1011E000AA1BBB1BFD010DC0AA1FBB1FEE1FFF1FCB
:1011F000A217B307E407F50720F0A21BB30BE40B1B
:10120000F50B661F771F881F991F1A9469F7609561
:101210007095809590959B01AC01BD01CF0108951B
:10122000A29FB001B39FC001A39F700D811D112427
:10123000911DB29F700D811D1124911D0895F89488
:02124000FFCFDE
:0C1242008B0000270033FF7F010000003C
:00000001FF
